{
  "contractName": "PatientRecords",
  "abi": [
    {
      "inputs": [
        {
          "internalType": "uint256",
          "name": "",
          "type": "uint256"
        }
      ],
      "name": "patients",
      "outputs": [
        {
          "internalType": "string",
          "name": "patientName",
          "type": "string"
        },
        {
          "internalType": "string",
          "name": "doctorName",
          "type": "string"
        },
        {
          "internalType": "string",
          "name": "bloodType",
          "type": "string"
        },
        {
          "internalType": "string",
          "name": "phoneNumber",
          "type": "string"
        },
        {
          "internalType": "string",
          "name": "email",
          "type": "string"
        },
        {
          "internalType": "string",
          "name": "dateOfAdmission",
          "type": "string"
        }
      ],
      "stateMutability": "view",
      "type": "function",
      "constant": true
    },
    {
      "inputs": [
        {
          "internalType": "string",
          "name": "_patientName",
          "type": "string"
        },
        {
          "internalType": "string",
          "name": "_doctorName",
          "type": "string"
        },
        {
          "internalType": "string",
          "name": "_bloodType",
          "type": "string"
        },
        {
          "internalType": "string",
          "name": "_phoneNumber",
          "type": "string"
        },
        {
          "internalType": "string",
          "name": "_email",
          "type": "string"
        },
        {
          "internalType": "string",
          "name": "_dateOfAdmission",
          "type": "string"
        }
      ],
      "name": "addPatient",
      "outputs": [],
      "stateMutability": "nonpayable",
      "type": "function"
    },
    {
      "inputs": [
        {
          "internalType": "uint256",
          "name": "_index",
          "type": "uint256"
        }
      ],
      "name": "getPatient",
      "outputs": [
        {
          "internalType": "string",
          "name": "",
          "type": "string"
        },
        {
          "internalType": "string",
          "name": "",
          "type": "string"
        },
        {
          "internalType": "string",
          "name": "",
          "type": "string"
        },
        {
          "internalType": "string",
          "name": "",
          "type": "string"
        },
        {
          "internalType": "string",
          "name": "",
          "type": "string"
        },
        {
          "internalType": "string",
          "name": "",
          "type": "string"
        }
      ],
      "stateMutability": "view",
      "type": "function",
      "constant": true
    },
    {
      "inputs": [],
      "name": "getPatientCount",
      "outputs": [
        {
          "internalType": "uint256",
          "name": "",
          "type": "uint256"
        }
      ],
      "stateMutability": "view",
      "type": "function",
      "constant": true
    },
    {
      "inputs": [
        {
          "internalType": "uint256",
          "name": "_index",
          "type": "uint256"
        },
        {
          "internalType": "string",
          "name": "_patientName",
          "type": "string"
        },
        {
          "internalType": "string",
          "name": "_doctorName",
          "type": "string"
        },
        {
          "internalType": "string",
          "name": "_bloodType",
          "type": "string"
        },
        {
          "internalType": "string",
          "name": "_phoneNumber",
          "type": "string"
        },
        {
          "internalType": "string",
          "name": "_email",
          "type": "string"
        },
        {
          "internalType": "string",
          "name": "_dateOfAdmission",
          "type": "string"
        }
      ],
      "name": "updatePatient",
      "outputs": [],
      "stateMutability": "nonpayable",
      "type": "function"
    },
    {
      "inputs": [
        {
          "internalType": "uint256",
          "name": "_index",
          "type": "uint256"
        }
      ],
      "name": "deletePatient",
      "outputs": [],
      "stateMutability": "nonpayable",
      "type": "function"
    }
  ],
  "bytecode": "0x608060405234801561001057600080fd5b50611577806100206000396000f3fe608060405234801561001057600080fd5b50600436106100625760003560e01c806367e57482146100675780637d3a67961461008357806393119a83146100b8578063a4f3cc23146100ed578063c190665b14610109578063f63d12c414610127575b600080fd5b610081600480360381019061007c91906110b8565b610143565b005b61009d600480360381019061009891906110b8565b6103a2565b6040516100af96959493929190611297565b60405180910390f35b6100d260048036038101906100cd91906110b8565b6107e8565b6040516100e496959493929190611297565b60405180910390f35b61010760048036038101906101029190610f9f565b610b64565b005b610111610c74565b60405161011e9190611342565b60405180910390f35b610141600480360381019061013c91906110e1565b610c80565b005b600080549050811061018a576040517f08c379a000000000000000000000000000000000000000000000000000000000815260040161018190611322565b60405180910390fd5b6000600160008054905061019e91906113da565b815481106101d5577f4e487b7100000000000000000000000000000000000000000000000000000000600052603260045260246000fd5b90600052602060002090600602016000828154811061021d577f4e487b7100000000000000000000000000000000000000000000000000000000600052603260045260246000fd5b9060005260206000209060060201600082018160000190805461023f9061145a565b61024a929190610db2565b50600182018160010190805461025f9061145a565b61026a929190610db2565b50600282018160020190805461027f9061145a565b61028a929190610db2565b50600382018160030190805461029f9061145a565b6102aa929190610db2565b5060048201816004019080546102bf9061145a565b6102ca929190610db2565b5060058201816005019080546102df9061145a565b6102ea929190610db2565b509050506000805480610326577f4e487b7100000000000000000000000000000000000000000000000000000000600052603160045260246000fd5b60019003818190600052602060002090600602016000808201600061034b9190610e3f565b60018201600061035b9190610e3f565b60028201600061036b9190610e3f565b60038201600061037b9190610e3f565b60048201600061038b9190610e3f565b60058201600061039b9190610e3f565b5050905550565b60608060608060608060008054905087106103f2576040517f08c379a00000000000000000000000000000000000000000000000000000000081526004016103e990611322565b60405180910390fd5b600080888154811061042d577f4e487b7100000000000000000000000000000000000000000000000000000000600052603260045260246000fd5b90600052602060002090600602016040518060c00160405290816000820180546104569061145a565b80601f01602080910402602001604051908101604052809291908181526020018280546104829061145a565b80156104cf5780601f106104a4576101008083540402835291602001916104cf565b820191906000526020600020905b8154815290600101906020018083116104b257829003601f168201915b505050505081526020016001820180546104e89061145a565b80601f01602080910402602001604051908101604052809291908181526020018280546105149061145a565b80156105615780601f1061053657610100808354040283529160200191610561565b820191906000526020600020905b81548152906001019060200180831161054457829003601f168201915b5050505050815260200160028201805461057a9061145a565b80601f01602080910402602001604051908101604052809291908181526020018280546105a69061145a565b80156105f35780601f106105c8576101008083540402835291602001916105f3565b820191906000526020600020905b8154815290600101906020018083116105d657829003601f168201915b5050505050815260200160038201805461060c9061145a565b80601f01602080910402602001604051908101604052809291908181526020018280546106389061145a565b80156106855780601f1061065a57610100808354040283529160200191610685565b820191906000526020600020905b81548152906001019060200180831161066857829003601f168201915b5050505050815260200160048201805461069e9061145a565b80601f01602080910402602001604051908101604052809291908181526020018280546106ca9061145a565b80156107175780601f106106ec57610100808354040283529160200191610717565b820191906000526020600020905b8154815290600101906020018083116106fa57829003601f168201915b505050505081526020016005820180546107309061145a565b80601f016020809104026020016040519081016040528092919081815260200182805461075c9061145a565b80156107a95780601f1061077e576101008083540402835291602001916107a9565b820191906000526020600020905b81548152906001019060200180831161078c57829003601f168201915b5050505050815250509050806000015181602001518260400151836060015184608001518560a001519650965096509650965096505091939550919395565b600081815481106107f857600080fd5b906000526020600020906006020160009150905080600001805461081b9061145a565b80601f01602080910402602001604051908101604052809291908181526020018280546108479061145a565b80156108945780601f1061086957610100808354040283529160200191610894565b820191906000526020600020905b81548152906001019060200180831161087757829003601f168201915b5050505050908060010180546108a99061145a565b80601f01602080910402602001604051908101604052809291908181526020018280546108d59061145a565b80156109225780601f106108f757610100808354040283529160200191610922565b820191906000526020600020905b81548152906001019060200180831161090557829003601f168201915b5050505050908060020180546109379061145a565b80601f01602080910402602001604051908101604052809291908181526020018280546109639061145a565b80156109b05780601f10610985576101008083540402835291602001916109b0565b820191906000526020600020905b81548152906001019060200180831161099357829003601f168201915b5050505050908060030180546109c59061145a565b80601f01602080910402602001604051908101604052809291908181526020018280546109f19061145a565b8015610a3e5780601f10610a1357610100808354040283529160200191610a3e565b820191906000526020600020905b815481529060010190602001808311610a2157829003601f168201915b505050505090806004018054610a539061145a565b80601f0160208091040260200160405190810160405280929190818152602001828054610a7f9061145a565b8015610acc5780601f10610aa157610100808354040283529160200191610acc565b820191906000526020600020905b815481529060010190602001808311610aaf57829003601f168201915b505050505090806005018054610ae19061145a565b80601f0160208091040260200160405190810160405280929190818152602001828054610b0d9061145a565b8015610b5a5780601f10610b2f57610100808354040283529160200191610b5a565b820191906000526020600020905b815481529060010190602001808311610b3d57829003601f168201915b5050505050905086565b60006040518060c001604052808881526020018781526020018681526020018581526020018481526020018381525090806001815401808255809150506001900390600052602060002090600602016000909190919091506000820151816000019080519060200190610bd8929190610e7f565b506020820151816001019080519060200190610bf5929190610e7f565b506040820151816002019080519060200190610c12929190610e7f565b506060820151816003019080519060200190610c2f929190610e7f565b506080820151816004019080519060200190610c4c929190610e7f565b5060a0820151816005019080519060200190610c69929190610e7f565b505050505050505050565b60008080549050905090565b6000805490508710610cc7576040517f08c379a0000000000000000000000000000000000000000000000000000000008152600401610cbe90611322565b60405180910390fd5b6000808881548110610d02577f4e487b7100000000000000000000000000000000000000000000000000000000600052603260045260246000fd5b9060005260206000209060060201905086816000019080519060200190610d2a929190610e7f565b5085816001019080519060200190610d43929190610e7f565b5084816002019080519060200190610d5c929190610e7f565b5083816003019080519060200190610d75929190610e7f565b5082816004019080519060200190610d8e929190610e7f565b5081816005019080519060200190610da7929190610e7f565b505050505050505050565b828054610dbe9061145a565b90600052602060002090601f016020900481019282610de05760008555610e2e565b82601f10610df15780548555610e2e565b82800160010185558215610e2e57600052602060002091601f016020900482015b82811115610e2d578254825591600101919060010190610e12565b5b509050610e3b9190610f05565b5090565b508054610e4b9061145a565b6000825580601f10610e5d5750610e7c565b601f016020900490600052602060002090810190610e7b9190610f05565b5b50565b828054610e8b9061145a565b90600052602060002090601f016020900481019282610ead5760008555610ef4565b82601f10610ec657805160ff1916838001178555610ef4565b82800160010185558215610ef4579182015b82811115610ef3578251825591602001919060010190610ed8565b5b509050610f019190610f05565b5090565b5b80821115610f1e576000816000905550600101610f06565b5090565b6000610f35610f308461138e565b61135d565b905082815260208101848484011115610f4d57600080fd5b610f58848285611418565b509392505050565b600082601f830112610f7157600080fd5b8135610f81848260208601610f22565b91505092915050565b600081359050610f998161152a565b92915050565b60008060008060008060c08789031215610fb857600080fd5b600087013567ffffffffffffffff811115610fd257600080fd5b610fde89828a01610f60565b965050602087013567ffffffffffffffff811115610ffb57600080fd5b61100789828a01610f60565b955050604087013567ffffffffffffffff81111561102457600080fd5b61103089828a01610f60565b945050606087013567ffffffffffffffff81111561104d57600080fd5b61105989828a01610f60565b935050608087013567ffffffffffffffff81111561107657600080fd5b61108289828a01610f60565b92505060a087013567ffffffffffffffff81111561109f57600080fd5b6110ab89828a01610f60565b9150509295509295509295565b6000602082840312156110ca57600080fd5b60006110d884828501610f8a565b91505092915050565b600080600080600080600060e0888a0312156110fc57600080fd5b600061110a8a828b01610f8a565b975050602088013567ffffffffffffffff81111561112757600080fd5b6111338a828b01610f60565b965050604088013567ffffffffffffffff81111561115057600080fd5b61115c8a828b01610f60565b955050606088013567ffffffffffffffff81111561117957600080fd5b6111858a828b01610f60565b945050608088013567ffffffffffffffff8111156111a257600080fd5b6111ae8a828b01610f60565b93505060a088013567ffffffffffffffff8111156111cb57600080fd5b6111d78a828b01610f60565b92505060c088013567ffffffffffffffff8111156111f457600080fd5b6112008a828b01610f60565b91505092959891949750929550565b600061121a826113be565b61122481856113c9565b9350611234818560208601611427565b61123d81611519565b840191505092915050565b6000611255601c836113c9565b91507f50617469656e7420696e646578206f7574206f6620626f756e64732e000000006000830152602082019050919050565b6112918161140e565b82525050565b600060c08201905081810360008301526112b1818961120f565b905081810360208301526112c5818861120f565b905081810360408301526112d9818761120f565b905081810360608301526112ed818661120f565b90508181036080830152611301818561120f565b905081810360a0830152611315818461120f565b9050979650505050505050565b6000602082019050818103600083015261133b81611248565b9050919050565b60006020820190506113576000830184611288565b92915050565b6000604051905081810181811067ffffffffffffffff82111715611384576113836114ea565b5b8060405250919050565b600067ffffffffffffffff8211156113a9576113a86114ea565b5b601f19601f8301169050602081019050919050565b600081519050919050565b600082825260208201905092915050565b60006113e58261140e565b91506113f08361140e565b9250828210156114035761140261148c565b5b828203905092915050565b6000819050919050565b82818337600083830152505050565b60005b8381101561144557808201518184015260208101905061142a565b83811115611454576000848401525b50505050565b6000600282049050600182168061147257607f821691505b60208210811415611486576114856114bb565b5b50919050565b7f4e487b7100000000000000000000000000000000000000000000000000000000600052601160045260246000fd5b7f4e487b7100000000000000000000000000000000000000000000000000000000600052602260045260246000fd5b7f4e487b7100000000000000000000000000000000000000000000000000000000600052604160045260246000fd5b6000601f19601f8301169050919050565b6115338161140e565b811461153e57600080fd5b5056fea26469706673582212205665f0b4cc3bbee9d215f4eab10ef1a17d21408661384fb1359c23101a1b0fdc64736f6c63430008000033",
  "immutableReferences": {},
  "source": "// SPDX-License-Identifier: MIT\npragma solidity ^0.8.0;\n\ncontract PatientRecords {\n    struct Patient {\n        string patientName;\n        string doctorName;\n        string bloodType;      // Added field for blood type\n        string phoneNumber;    // Added field for phone number\n        string email;          // Added field for email\n        string dateOfAdmission;\n    }\n\n    Patient[] public patients;\n\n    // Add a new patient\n    function addPatient(\n        string memory _patientName,\n        string memory _doctorName,\n        string memory _bloodType,      // Added blood type as parameter\n        string memory _phoneNumber,    // Added phone number as parameter\n        string memory _email,          // Added email as parameter\n        string memory _dateOfAdmission\n    ) public {\n        patients.push(Patient(_patientName, _doctorName, _bloodType, _phoneNumber, _email, _dateOfAdmission));\n    }\n\n    // Get a patient's details by index\n    function getPatient(uint256 _index) public view returns (\n        string memory, \n        string memory, \n        string memory, \n        string memory, \n        string memory, \n        string memory\n    ) {\n        require(_index < patients.length, \"Patient index out of bounds.\");\n        Patient memory patient = patients[_index];\n        return (\n            patient.patientName, \n            patient.doctorName, \n            patient.bloodType, \n            patient.phoneNumber, \n            patient.email, \n            patient.dateOfAdmission\n        );\n    }\n\n    // Get the number of patients\n    function getPatientCount() public view returns (uint256) {\n        return patients.length;\n    }\n\n    // Update a patient's information by index\n    function updatePatient(\n        uint256 _index,\n        string memory _patientName,\n        string memory _doctorName,\n        string memory _bloodType,      // Updated function to allow updating blood type\n        string memory _phoneNumber,    // Updated function to allow updating phone number\n        string memory _email,          // Updated function to allow updating email\n        string memory _dateOfAdmission\n    ) public {\n        require(_index < patients.length, \"Patient index out of bounds.\");\n        Patient storage patient = patients[_index]; // Using storage to directly update the patient record\n        patient.patientName = _patientName;\n        patient.doctorName = _doctorName;\n        patient.bloodType = _bloodType;\n        patient.phoneNumber = _phoneNumber;\n        patient.email = _email;\n        patient.dateOfAdmission = _dateOfAdmission;\n    }\n\n    // Delete a patient by index\n    function deletePatient(uint256 _index) public {\n        require(_index < patients.length, \"Patient index out of bounds.\");\n\n        // Swap the patient at the given index with the last patient\n        patients[_index] = patients[patients.length - 1];\n\n        // Remove the last patient (which is now a duplicate)\n        patients.pop();\n    }\n}\n",
  "sourcePath": "C:\\Users\\Dishant\\Desktop\\Semester 7\\BC\\p5\\simpleStorage\\contracts\\PatientRecords.sol",
  "compiler": {
    "name": "solc",
    "version": "0.8.0+commit.c7dfd78e.Emscripten.clang"
  },
  "schemaVersion": "3.4.16",
  "updatedAt": "2024-10-07T16:39:46.739Z",
  "networkType": "ethereum",
  "devdoc": {
    "kind": "dev",
    "methods": {},
    "version": 1
  },
  "userdoc": {
    "kind": "user",
    "methods": {},
    "version": 1
  }
}